:100000000A128A11E62F00308A000408840A820747
:100010000034523465346C346134793420347334B0
:10002000743461347434753473343A3420340034A5
:10003000573465346C3463346F346D346534203434
:1000400074346F3400347234543472346F346E3418
:100050006934633473340034543469346D34653432
:100060003A3420340034533474346F3470343A34B6
:10007000203400344F344634463400344F344E3448
:10008000003401300A128A159E270A128A110800CC
:100090000030FC000030FB000030FA000030F900B6
:1000A000701C532854286B287408F907750803112D
:1000B0000318013E03195D28FA0776080311031897
:1000C000013E03196428FB07770803110318013E5A
:1000D00003196B28FC070130F8000310F40DF50D2F
:1000E000F60DF70DF80B6D2801300310F30CF20C30
:1000F000F10CF00CFF3E031D7528730872047104A7
:100100007004031D8428852850287C08F3007B0890
:10011000F2007A08F1007908F0000800F60076088D
:100120000F39F1007108F4007608F039F100710818
:10013000F5008312031308147508F100043003104E
:10014000F10CFF3E031D9F2871080A128A15E02654
:100150000A128A118312031308150230F3000430C7
:10016000F200BA30F100F10BB328F20BB328F30B15
:10017000B328000083120313081174080A128A15A9
:10018000E0260A128A118312031308150230F300C5
:100190000430F200BA30F100F10BCC28F20BCC287D
:1001A000F30BCC28000083120313081108008316F8
:1001B0000313871507162830831203139400831640
:1001C00003139101831203132D08B1002E08B2000E
:1001D0002F08B3003008B40002300310B10DB20D87
:1001E000B30DB40DFF3E031DED283408F3003308B2
:1001F000F2003208F1003108F0000030F700003062
:10020000F6000030F5006430F4000A128A1148202C
:100210000A128A11730883120313A3007208A20042
:100220007108A1007008A0000130A7003130A600BD
:100230002D30A5000030A4000A128A1142220A12B1
:100240008A11831203132008FF3E831603139300C1
:1002500094010800F401F40A03300A128A11AA2258
:100260000A128A112B300A128A154C270A128A1197
:10027000831203134308303E0A128A118E200A1299
:100280008A11831203134508303E0A128A118E2008
:100290000A128A113A300A128A118E200A128A1121
:1002A000831203134708303E0A128A118E200A1265
:1002B0008A11831203134908303E0A128A118E20D4
:1002C0000A128A113A300A128A118E200A128A11F1
:1002D00030300A128A118E200A128A1130300A1226
:1002E0008A118E200A128A110230FD004530FC006E
:1002F000A930FB00FB0B7A29FC0B7A29FD0B7A292C
:1003000081290800F601F31F862987298E29F20921
:10031000F309F20A0319F30AF601F60AF11F91290B
:1003200092299729F009F109F00A0319F10A7008D6
:10033000710403199C299D29CC29F501F50AAB29E3
:1003400001300310F00DF10DFF3E031DA129013016
:10035000F4007408F507F11FAE29AF29A029710830
:100360007302031DB52970087202031CB829B9294C
:10037000BF297008F2027108031CF303F302013075
:100380000310F10CF00CFF3E031DC0290130F502F3
:10039000031DCB29CC29AF2976080319D029D129EF
:1003A000D629F209F309F20A0319F30A7308F100D6
:1003B0007208F0000800F601F11FDF29E029E729A3
:1003C000F009F109F00A0319F10AF601F60AF31F20
:1003D000EA29EB29F429F209F309F20A0319F30ACD
:1003E0000130F4007408F606F701F8017008710492
:1003F0000319FB29FC29332AF501F50A0A2A0130E1
:100400000310F00DF10DFF3E031D002A0130F40032
:100410007408F507F11F0D2A0E2AFF290130031079
:10042000F70DF80DFF3E031D0F2A71087302031D1F
:100430001B2A70087202031C1E2A1F2A262A700813
:10044000F2027108031CF303F30277140130031066
:10045000F10CF00CFF3E031D272A0130F502031DAD
:10046000322A332A0E2A76080319372A382A3D2AD7
:10047000F709F809F70A0319F80A7808F10077086C
:10048000F0000800003083120313AB000030AA0014
:100490000030A9000030A800230822042104200411
:1004A0000319532A542AA12AAC01AC0A642A013048
:1004B000FD000310A00DA10DA20DA30DFD0B592AE7
:1004C0000130FD007D08AC07A31F672A682A572A60
:1004D0000130FD000310A80DA90DAA0DAB0DFD0BF9
:1004E0006A2A23082702031D7F2A22082602031DE9
:1004F0007F2A21082502031D7F2A20082402031CCD
:10050000822A832A922A2008A4022108031C210F90
:10051000A5022208031C220FA6022308031C230F96
:10052000A702281401300310A30CA20CA10CA00CEC
:10053000FF3E031D932A0130AC02031DA02AA12A0D
:10054000682A2B08A3002A08A2002908A10028086D
:10055000A0000800F7007703031DAF2AB02AD32AB2
:1005600074087F3EF5007508FA007A08F50004303B
:100570000310F50CFF3E031DB82A7508F600760837
:10058000F8007A080F39F5007508F90078080A12A2
:100590008A1587260A128A1179080A128A1587266F
:1005A0000A128A114E2B02307706031DD82AD92A47
:1005B000FC2A7408BF3EF5007508FA007A08F500B9
:1005C00004300310F50CFF3E031DE12A7508F60008
:1005D0007608F8007A080F39F5007508F9007808F0
:1005E0000A128A1587260A128A1179080A128A15B0
:1005F00087260A128A114E2B03307706031D012B22
:10060000022B252B7408933EF5007508FA007A0832
:10061000F50004300310F50CFF3E031D0A2B75088E
:10062000F6007608F8007A080F39F5007508F90029
:1006300078080A128A1587260A128A1179080A127E
:100640008A1587260A128A114E2B04307706031D5D
:100650002A2B2B2B4E2B7408D33EF5007508FA007D
:100660007A08F50004300310F50CFF3E031D332B10
:100670007508F6007608F8007A080F39F500750855
:10068000F90078080A128A1587260A128A11790851
:100690000A128A1587260A128A114E2B08000A3080
:1006A000F0000030F100831203135C08F3005B08D4
:1006B000F2000A128A1182210A128A117008FB00C4
:1006C0007B0883120313A0000A30F0000030F10011
:1006D0005C08F3005B08F2000A128A11DB210A129F
:1006E0008A117008FB007B0883120313A1000A30F3
:1006F000F0000030F1005E08F3005D08F2000A121D
:100700008A1182210A128A117008FB007B08831269
:100710000313A2000A30F0000030F1005E08F3007D
:100720005D08F2000A128A11DB210A128A11700890
:10073000FB007B0883120313A3000A30F000003093
:10074000F1006008F3005F08F2000A128A118221AA
:100750000A128A117008FB007B0883120313A4009D
:100760000A30F0000030F1006008F3005F08F2008A
:100770000A128A11DB210A128A117008FB007B0819
:1007800083120313A5000D30FB007B08F400013039
:100790000A128A11AA220A128A1183120313250847
:1007A000303E0A128A118E200A128A118312031314
:1007B0002408303E0A128A118E200A128A112D3026
:1007C0000A128A118E200A128A1183120313230837
:1007D000303E0A128A118E200A128A1183120313E4
:1007E0002208303E0A128A118E200A128A112D30F8
:1007F0000A128A118E200A128A1183120313210809
:10080000303E0A128A118E200A128A1183120313B3
:100810002008303E0A128A118E200A128A1108001E
:100820000A30F0000030F100831203134C08F3008B
:100830004B08F2000A128A1182210A128A117008EA
:10084000FB007B0883120313D3000A30F000003052
:10085000F1004C08F3004B08F2000A128A11DB2168
:100860000A128A117008FB007B0883120313D2005E
:100870000A30F0000030F1006408F3006308F20071
:100880000A128A1182210A128A117008FB007B0861
:1008900083120313D1000A30F0000030F100640825
:1008A000F3006308F2000A128A11DB210A128A118E
:1008B0007008FB007B0883120313D0000A30F0009D
:1008C0000030F1006208F3006108F2000A128A1198
:1008D00082210A128A117008FB007B08831203131D
:1008E000CF000A30F0000030F1006208F300610828
:1008F000F2000A128A11DB210A128A117008FB0029
:100900007B0883120313CE00F401F40A02300A12AA
:100910008A11AA220A128A1124300A128A154C2737
:100920000A128A11831203134E08303E0A128A11EA
:100930008E200A128A11831203134F08303E0A12C6
:100940008A118E200A128A113A300A128A118E20D8
:100950000A128A11831203135008303E0A128A11B8
:100960008E200A128A11831203135108303E0A1294
:100970008A118E200A128A113A300A128A118E20A8
:100980000A128A11831203135208303E0A128A1186
:100990008E200A128A11831203135308303E0A1262
:1009A0008A118E200A128A1108000A128A151C2642
:1009B0000A128A11D030F0000030F1000A128A15B4
:1009C0002E260A128A110030F000F1000A128A1550
:1009D0002E260A128A110A128A1525260A128A114F
:1009E0000A128A151C260A128A11D130F000003032
:1009F000F1000A128A152E260A128A110130F0001F
:100A00000030F1000A128A1571270A128A11710842
:100A1000F7007008F6000A128A1527270A128A11B1
:100A2000770883120313CC007608CB000130F00066
:100A30000030F1000A128A1571270A128A11710812
:100A4000F7007008F6000A128A1527270A128A1181
:100A5000770883120313E4007608E3000130F00006
:100A60000030F1000A128A1571270A128A117108E2
:100A7000F7007008F6000A128A1527270A128A1151
:100A8000770883120313E2007608E1000130F000DA
:100A90000030F1000A128A1571270A128A110130FA
:100AA000F0000030F1000A128A1571270A128A112B
:100AB0007108F7007008F6000A128A1527270A1233
:100AC0008A11770883120313E0007608DF000130F3
:100AD000F0000030F1000A128A1571270A128A11FB
:100AE0007108F7007008F6000A128A1527270A1203
:100AF0008A11770883120313DE007608DD000130C7
:100B0000F0000030F1000A128A1571270A128A11CA
:100B10007108F7007008F6000A128A1527270A12D2
:100B20008A11770883120313DC007608DB000A12AF
:100B30008A1525260A128A110A128A151C260A12FB
:100B40008A11D130F0000030F1000A128A152E26E9
:100B50000A128A110130F0000030F1000A128A15E1
:100B600071270A128A110A128A1525260A128A1179
:100B70000800831203138618BE2DBF2DCA2D5A08F4
:100B8000031DC32DC42DCA2D861CC72DC82DC42DF1
:100B9000DA01DA0A8618CD2DCE2DD82D5A03031D81
:100BA000D22DD32DD82D861CD62DD72DD32DDA01BD
:100BB0005A03031DDC2DDD2D3A2E0618E02DE12D04
:100BC000E72D061CE42DE52DE12D0130E502061987
:100BD000EA2DEB2DF32D061DEE2DEF2DEB2D013023
:100BE000FB007B08E50709306502031CF82DF92D91
:100BF000FC2DD801D80AFD2DD8018619002E012E12
:100C0000102E861D042E052E012E6508FB007B0785
:100C1000353E8400013083138007840A0318800A5C
:100C2000061A132E142E292E861D172E182E142E5A
:100C30006508FB007B07353E8400FF308313800787
:100C4000840F00080318000AFF00FF307F078000B0
:100C5000840358086507FB007B08F40003300A1280
:100C60008A11AA220A128A115F300A128A118E2072
:100C70000A128A11831203135A08031D402E412EB3
:100C8000772E4E08FB00FC0144087C06031D4A2E0B
:100C900043087B06031D4D2E4E2E772E4F08FB007A
:100CA000FC0146087C06031D572E45087B06031DE4
:100CB0005A2E5B2E772E5008FB00FC0148087C065C
:100CC000031D642E47087B06031D672E682E772EB2
:100CD0005108FB00FC014A087C06031D712E4908DF
:100CE0007B06031D742E752E772ED901D90A59085B
:100CF000031D7B2E7C2E8E2E07140F30FB007B08ED
:100D0000F40004300A128A11AA220A128A1136301B
:100D10000A128A154C270A128A119F2E07100F30CB
:100D2000FB007B08F40004300A128A11AA220A127E
:100D30008A1132300A128A154C270A128A1102309F
:100D4000FD004530FC00A930FB00FB0BA52EFC0B81
:100D5000A52EFD0BA52EAC2E08008316031307103D
:100D6000831203130714831603138801FF308600D0
:100D700081018312031388110A128A15A1260A120F
:100D80008A11003083120313B0000030AF0000302E
:100D9000AE006430AD000A128A11D7200A128A11FF
:100DA000063083120313B5003508F40002300A122E
:100DB0008A11AA220A128A1110300A128A154C27A7
:100DC0000A128A11073083120313B5003508F400A4
:100DD00003300A128A11AA220A128A111B300A123F
:100DE0008A154C270A128A11273083120313B70081
:100DF0000D30B6002530B500B50BFC2EB60BFC2E21
:100E0000B70BFC2E032F0A128A1141200A128A11F5
:100E10000A128A11D5240A128A110A128A114F2342
:100E20000A128A110A128A1110240A128A110A124D
:100E30008A112A210A128A110A128A1550260A12C8
:100E40008A110A128A11B9250A128A118312031310
:100E50001F150A128A15C0260A128A1170088312F9
:100E60000313B5003508C200E830F0000330F1008C
:100E70004208B500B6013508F2003608F3000A1240
:100E80008A11DB210A128A11700883120313B7003A
:100E90003708BC001830B5003508F0003C080A12CD
:100EA0008A1572260A128A11831203134207B600AA
:100EB0003608C2006430F0000030F1004208B5008E
:100EC000B6013508F2003608F3000A128A11DB2158
:100ED0000A128A11700883120313B7003708BD0085
:100EE0009C30B5003508F0003D080A128A157226BC
:100EF0000A128A11831203134207B6003608C20091
:100F00000A30F0000030F1004208B500B6013508A3
:100F1000F2003608F3000A128A11DB210A128A1144
:100F2000700883120313B7003708BE000A30F000C0
:100F30000030F1004208B500B6013508F20036086D
:100F4000F3000A128A1182210A128A117008831290
:100F50000313B7003708BF00F401F40A01300A1286
:100F60008A11AA220A128A1183120313C001C10135
:100F70008312031340083C3E840083130008303E74
:100F8000B5004008383E8400350880000130C007B5
:100F90000318C10A0030C1074108803AFF008030C1
:100FA0007F02031DD52F05304002031CD82FD92FF7
:100FB000B82F831203133C08303E0A128A15CF273C
:100FC0000A128A11082F0A128A1100288313663028
:100FD000FD000E30FE003830FF005B3084000A1246
:100FE0008A1563260A128A11433084005B300A1284
:100FF0008A1514260A128A1183010A128A11AD2E4B
:101C280064008001840A0406031900340406152E92
:101C38000A128A1543260A128A15831603131114E9
:101C480008000A128A1543260A128A1583160313F6
:101C5800111508000A128A1543260A128A157008F7
:101C6800831203139300080012340034053400343F
:101C7800063400340A340034373400340734831609
:101C8800031311081F39031D4A2E4B2E432E141916
:101C98004E2E4F2E432E0800F401F40A04300A1287
:101CA8008A11AA220A128A1501300A128A154C27AB
:101CB8000A128A1508007E088A007F0882000A1224
:101CC8008A155F260A128A158000840A04087D0690
:101CD80003190034FF0A0319FE0A632EF300F20108
:101CE800731C772E782E7C2E7008F1007108F2078D
:101CF8000310F00D0310F30C7308031D842E852EBA
:101D0800742E72080800F300831203130810730876
:101D18000A128A15E0260A128A1583120313081577
:101D28001A30F200F830F100F10B982EF20B982ED1
:101D38000000831203130811080002300A128A15E2
:101D48009E270A128A1528300A128A159E270A1217
:101D58008A150C300A128A159E270A128A1506302F
:101D68000A128A159E270A128A1501300A128A1544
:101D78009E270A128A150800831203131F19C52EFD
:101D8800C62EC02E831603131E08F200F301720834
:101D9800F4007308F500831203131E08F200F30120
:101DA8007208F300F2017208F4047308F504750868
:101DB800F1007408F0000800F000701CE42EE52E15
:101DC800E92E831203130816EC2E8312031308124C
:101DD800F01CEF2EF02EF22E8816F32E8812701DAE
:101DE800F62EF72EF92E0817FA2E0813F01DFD2EE1
:101DF800FE2E002F8817012F88130800F401F50123
:101E0800701C072F082F0E2F7208F4070318F50A05
:101E18007308F50701300310F20DF30DFF3E031DA3
:101E28000F2F01300310F10CF00CFF3E031D162F8D
:101E380070087104031D212F222F042F7508F1004B
:101E48007408F00008000F307605F80000307705B8
:101E5800F900760E0F39F000770EF039F004770E9E
:101E68000F39F100F030F11D0030F1040A30F200B2
:101E78000030F3000A128A1502270A128A15780818
:101E88007007F60079080318790A7107F700080047
:101E9800F900F701F801632F7708790784000A121F
:101EA8008A1103200A128A150A128A118E200A1230
:101EB8008A150130F7070318F80A0030F807770881
:101EC800790784000A128A1103200A128A15003A37
:101ED800031D6F2F702F502F08000A128A154326F2
:101EE8000A128A158316031391150A128A154326B6
:101EF8000A128A15831203131308F200F3017208F9
:101F0800F4007308F5000A128A1543260A128A1586
:101F1800700871040319912F952F831603139116D6
:101F2800982F83160313911211167508F10074087F
:101F3800F0000800F2007208F039831203138800D9
:101F48000810881008152130F1007630F000F00BE9
:101F5800AB2FF10BAB2F000083120313081172088B
:101F6800F00003300310F00DFF3E031DB62F0310E1
:101F7800700DF03988000810881008152130F1001C
:101F88007630F000F00BC62FF10BC62F000083123D
:101F9800031308110800F2007208F03983120313C2
:101FA80088000814881008152130F1007630F000F8
:101FB800F00BDC2FF10BDC2F000083120313081148
:101FC8007208F00003300310F00DFF3E031DE72FE9
:101FD8000310700DF0398800081488100815213096
:101FE800F1007630F000F00BF72FF10BF72F00001F
:081FF800831203130811080015
:08400000FF3FFF3FFF3FFF3FC0
:02400E00FA3F77
:00000001FF
